{
  "contractName": "NFTCollection",
  "abi": [
    {
      "inputs": [],
      "stateMutability": "nonpayable",
      "type": "constructor"
    },
    {
      "anonymous": false,
      "inputs": [
        {
          "indexed": true,
          "internalType": "address",
          "name": "owner",
          "type": "address"
        },
        {
          "indexed": true,
          "internalType": "address",
          "name": "approved",
          "type": "address"
        },
        {
          "indexed": true,
          "internalType": "uint256",
          "name": "tokenId",
          "type": "uint256"
        }
      ],
      "name": "Approval",
      "type": "event"
    },
    {
      "anonymous": false,
      "inputs": [
        {
          "indexed": true,
          "internalType": "address",
          "name": "owner",
          "type": "address"
        },
        {
          "indexed": true,
          "internalType": "address",
          "name": "operator",
          "type": "address"
        },
        {
          "indexed": false,
          "internalType": "bool",
          "name": "approved",
          "type": "bool"
        }
      ],
      "name": "ApprovalForAll",
      "type": "event"
    },
    {
      "anonymous": false,
      "inputs": [
        {
          "indexed": true,
          "internalType": "address",
          "name": "from",
          "type": "address"
        },
        {
          "indexed": true,
          "internalType": "address",
          "name": "to",
          "type": "address"
        },
        {
          "indexed": true,
          "internalType": "uint256",
          "name": "tokenId",
          "type": "uint256"
        }
      ],
      "name": "Transfer",
      "type": "event"
    },
    {
      "inputs": [
        {
          "internalType": "address",
          "name": "to",
          "type": "address"
        },
        {
          "internalType": "uint256",
          "name": "tokenId",
          "type": "uint256"
        }
      ],
      "name": "approve",
      "outputs": [],
      "stateMutability": "nonpayable",
      "type": "function"
    },
    {
      "inputs": [
        {
          "internalType": "address",
          "name": "owner",
          "type": "address"
        }
      ],
      "name": "balanceOf",
      "outputs": [
        {
          "internalType": "uint256",
          "name": "",
          "type": "uint256"
        }
      ],
      "stateMutability": "view",
      "type": "function",
      "constant": true
    },
    {
      "inputs": [
        {
          "internalType": "uint256",
          "name": "tokenId",
          "type": "uint256"
        }
      ],
      "name": "getApproved",
      "outputs": [
        {
          "internalType": "address",
          "name": "",
          "type": "address"
        }
      ],
      "stateMutability": "view",
      "type": "function",
      "constant": true
    },
    {
      "inputs": [
        {
          "internalType": "address",
          "name": "owner",
          "type": "address"
        },
        {
          "internalType": "address",
          "name": "operator",
          "type": "address"
        }
      ],
      "name": "isApprovedForAll",
      "outputs": [
        {
          "internalType": "bool",
          "name": "",
          "type": "bool"
        }
      ],
      "stateMutability": "view",
      "type": "function",
      "constant": true
    },
    {
      "inputs": [],
      "name": "name",
      "outputs": [
        {
          "internalType": "string",
          "name": "",
          "type": "string"
        }
      ],
      "stateMutability": "view",
      "type": "function",
      "constant": true
    },
    {
      "inputs": [
        {
          "internalType": "uint256",
          "name": "tokenId",
          "type": "uint256"
        }
      ],
      "name": "ownerOf",
      "outputs": [
        {
          "internalType": "address",
          "name": "",
          "type": "address"
        }
      ],
      "stateMutability": "view",
      "type": "function",
      "constant": true
    },
    {
      "inputs": [
        {
          "internalType": "address",
          "name": "from",
          "type": "address"
        },
        {
          "internalType": "address",
          "name": "to",
          "type": "address"
        },
        {
          "internalType": "uint256",
          "name": "tokenId",
          "type": "uint256"
        }
      ],
      "name": "safeTransferFrom",
      "outputs": [],
      "stateMutability": "nonpayable",
      "type": "function"
    },
    {
      "inputs": [
        {
          "internalType": "address",
          "name": "from",
          "type": "address"
        },
        {
          "internalType": "address",
          "name": "to",
          "type": "address"
        },
        {
          "internalType": "uint256",
          "name": "tokenId",
          "type": "uint256"
        },
        {
          "internalType": "bytes",
          "name": "data",
          "type": "bytes"
        }
      ],
      "name": "safeTransferFrom",
      "outputs": [],
      "stateMutability": "nonpayable",
      "type": "function"
    },
    {
      "inputs": [
        {
          "internalType": "address",
          "name": "operator",
          "type": "address"
        },
        {
          "internalType": "bool",
          "name": "approved",
          "type": "bool"
        }
      ],
      "name": "setApprovalForAll",
      "outputs": [],
      "stateMutability": "nonpayable",
      "type": "function"
    },
    {
      "inputs": [],
      "name": "symbol",
      "outputs": [
        {
          "internalType": "string",
          "name": "",
          "type": "string"
        }
      ],
      "stateMutability": "view",
      "type": "function",
      "constant": true
    },
    {
      "inputs": [
        {
          "internalType": "uint256",
          "name": "index",
          "type": "uint256"
        }
      ],
      "name": "tokenByIndex",
      "outputs": [
        {
          "internalType": "uint256",
          "name": "",
          "type": "uint256"
        }
      ],
      "stateMutability": "view",
      "type": "function",
      "constant": true
    },
    {
      "inputs": [
        {
          "internalType": "address",
          "name": "owner",
          "type": "address"
        },
        {
          "internalType": "uint256",
          "name": "index",
          "type": "uint256"
        }
      ],
      "name": "tokenOfOwnerByIndex",
      "outputs": [
        {
          "internalType": "uint256",
          "name": "",
          "type": "uint256"
        }
      ],
      "stateMutability": "view",
      "type": "function",
      "constant": true
    },
    {
      "inputs": [
        {
          "internalType": "uint256",
          "name": "",
          "type": "uint256"
        }
      ],
      "name": "tokenURIs",
      "outputs": [
        {
          "internalType": "string",
          "name": "",
          "type": "string"
        }
      ],
      "stateMutability": "view",
      "type": "function",
      "constant": true
    },
    {
      "inputs": [],
      "name": "totalSupply",
      "outputs": [
        {
          "internalType": "uint256",
          "name": "",
          "type": "uint256"
        }
      ],
      "stateMutability": "view",
      "type": "function",
      "constant": true
    },
    {
      "inputs": [
        {
          "internalType": "address",
          "name": "from",
          "type": "address"
        },
        {
          "internalType": "address",
          "name": "to",
          "type": "address"
        },
        {
          "internalType": "uint256",
          "name": "tokenId",
          "type": "uint256"
        }
      ],
      "name": "transferFrom",
      "outputs": [],
      "stateMutability": "nonpayable",
      "type": "function"
    },
    {
      "inputs": [
        {
          "internalType": "bytes4",
          "name": "interfaceId",
          "type": "bytes4"
        }
      ],
      "name": "supportsInterface",
      "outputs": [
        {
          "internalType": "bool",
          "name": "",
          "type": "bool"
        }
      ],
      "stateMutability": "view",
      "type": "function",
      "constant": true
    },
    {
      "inputs": [
        {
          "internalType": "uint256",
          "name": "tokenId",
          "type": "uint256"
        }
      ],
      "name": "tokenURI",
      "outputs": [
        {
          "internalType": "string",
          "name": "",
          "type": "string"
        }
      ],
      "stateMutability": "view",
      "type": "function",
      "constant": true
    },
    {
      "inputs": [
        {
          "internalType": "string",
          "name": "_tokenURI",
          "type": "string"
        }
      ],
      "name": "safeMint",
      "outputs": [],
      "stateMutability": "nonpayable",
      "type": "function"
    }
  ],
  "bytecode": "0x60806040523480156200001157600080fd5b506040518060400160405280600e81526020017f59595520436f6c6c656374696f6e0000000000000000000000000000000000008152506040518060400160405280600381526020017f595955000000000000000000000000000000000000000000000000000000000081525081600090816200008f919062000324565b508060019081620000a1919062000324565b5050506200040b565b600081519050919050565b7f4e487b7100000000000000000000000000000000000000000000000000000000600052604160045260246000fd5b7f4e487b7100000000000000000000000000000000000000000000000000000000600052602260045260246000fd5b600060028204905060018216806200012c57607f821691505b602082108103620001425762000141620000e4565b5b50919050565b60008190508160005260206000209050919050565b60006020601f8301049050919050565b600082821b905092915050565b600060088302620001ac7fffffffffffffffffffffffffffffffffffffffffffffffffffffffffffffffff826200016d565b620001b886836200016d565b95508019841693508086168417925050509392505050565b6000819050919050565b6000819050919050565b600062000205620001ff620001f984620001d0565b620001da565b620001d0565b9050919050565b6000819050919050565b6200022183620001e4565b6200023962000230826200020c565b8484546200017a565b825550505050565b600090565b6200025062000241565b6200025d81848462000216565b505050565b5b8181101562000285576200027960008262000246565b60018101905062000263565b5050565b601f821115620002d4576200029e8162000148565b620002a9846200015d565b81016020851015620002b9578190505b620002d1620002c8856200015d565b83018262000262565b50505b505050565b600082821c905092915050565b6000620002f960001984600802620002d9565b1980831691505092915050565b6000620003148383620002e6565b9150826002028217905092915050565b6200032f82620000aa565b67ffffffffffffffff8111156200034b576200034a620000b5565b5b62000357825462000113565b6200036482828562000289565b600060209050601f8311600181146200039c576000841562000387578287015190505b62000393858262000306565b86555062000403565b601f198416620003ac8662000148565b60005b82811015620003d657848901518255600182019150602085019450602081019050620003af565b86831015620003f65784890151620003f2601f891682620002e6565b8355505b6001600288020188555050505b505050505050565b6133c3806200041b6000396000f3fe608060405234801561001057600080fd5b50600436106101165760003560e01c80636352211e116100a257806395d89b411161007157806395d89b4114610317578063a22cb46514610335578063b88d4fde14610351578063c87b56dd1461036d578063e985e9c51461039d57610116565b80636352211e1461026b578063695850fb1461029b5780636c8b703f146102b757806370a08231146102e757610116565b806318160ddd116100e957806318160ddd146101b557806323b872dd146101d35780632f745c59146101ef57806342842e0e1461021f5780634f6ccce71461023b57610116565b806301ffc9a71461011b57806306fdde031461014b578063081812fc14610169578063095ea7b314610199575b600080fd5b61013560048036038101906101309190611fea565b6103cd565b6040516101429190612032565b60405180910390f35b6101536103df565b60405161016091906120dd565b60405180910390f35b610183600480360381019061017e9190612135565b610471565b60405161019091906121a3565b60405180910390f35b6101b360048036038101906101ae91906121ea565b6104b7565b005b6101bd6105ce565b6040516101ca9190612239565b60405180910390f35b6101ed60048036038101906101e89190612254565b6105db565b005b610209600480360381019061020491906121ea565b61063b565b6040516102169190612239565b60405180910390f35b61023960048036038101906102349190612254565b6106e0565b005b61025560048036038101906102509190612135565b610700565b6040516102629190612239565b60405180910390f35b61028560048036038101906102809190612135565b610771565b60405161029291906121a3565b60405180910390f35b6102b560048036038101906102b091906123dc565b6107f7565b005b6102d160048036038101906102cc9190612135565b610908565b6040516102de91906120dd565b60405180910390f35b61030160048036038101906102fc9190612425565b6109b4565b60405161030e9190612239565b60405180910390f35b61031f610a6b565b60405161032c91906120dd565b60405180910390f35b61034f600480360381019061034a919061247e565b610afd565b005b61036b6004803603810190610366919061255f565b610b13565b005b61038760048036038101906103829190612135565b610b75565b60405161039491906120dd565b60405180910390f35b6103b760048036038101906103b291906125e2565b610c62565b6040516103c49190612032565b60405180910390f35b60006103d882610cf6565b9050919050565b6060600080546103ee90612651565b80601f016020809104026020016040519081016040528092919081815260200182805461041a90612651565b80156104675780601f1061043c57610100808354040283529160200191610467565b820191906000526020600020905b81548152906001019060200180831161044a57829003601f168201915b5050505050905090565b600061047c82610d70565b6004600083815260200190815260200160002060009054906101000a900473ffffffffffffffffffffffffffffffffffffffff169050919050565b60006104c282610771565b90508073ffffffffffffffffffffffffffffffffffffffff168373ffffffffffffffffffffffffffffffffffffffff1603610532576040517f08c379a0000000000000000000000000000000000000000000000000000000008152600401610529906126f4565b60405180910390fd5b8073ffffffffffffffffffffffffffffffffffffffff16610551610dbb565b73ffffffffffffffffffffffffffffffffffffffff161480610580575061057f8161057a610dbb565b610c62565b5b6105bf576040517f08c379a00000000000000000000000000000000000000000000000000000000081526004016105b690612786565b60405180910390fd5b6105c98383610dc3565b505050565b6000600880549050905090565b6105ec6105e6610dbb565b82610e7c565b61062b576040517f08c379a000000000000000000000000000000000000000000000000000000000815260040161062290612818565b60405180910390fd5b610636838383610f11565b505050565b6000610646836109b4565b8210610687576040517f08c379a000000000000000000000000000000000000000000000000000000000815260040161067e906128aa565b60405180910390fd5b600660008473ffffffffffffffffffffffffffffffffffffffff1673ffffffffffffffffffffffffffffffffffffffff168152602001908152602001600020600083815260200190815260200160002054905092915050565b6106fb83838360405180602001604052806000815250610b13565b505050565b600061070a6105ce565b821061074b576040517f08c379a00000000000000000000000000000000000000000000000000000000081526004016107429061293c565b60405180910390fd5b6008828154811061075f5761075e61295c565b5b90600052602060002001549050919050565b60008061077d8361120a565b9050600073ffffffffffffffffffffffffffffffffffffffff168173ffffffffffffffffffffffffffffffffffffffff16036107ee576040517f08c379a00000000000000000000000000000000000000000000000000000000081526004016107e5906129d7565b60405180910390fd5b80915050919050565b600b816040516108079190612a33565b908152602001604051809103902060009054906101000a900460ff1615610863576040517f08c379a000000000000000000000000000000000000000000000000000000000815260040161085a90612a96565b60405180910390fd5b600a819080600181540180825580915050600190039060005260206000200160009091909190915090816108979190612c62565b506000600a80549050905081600c600083815260200190815260200160002090816108c29190612c62565b506108cd3382611247565b6001600b836040516108df9190612a33565b908152602001604051809103902060006101000a81548160ff0219169083151502179055505050565b600a818154811061091857600080fd5b90600052602060002001600091509050805461093390612651565b80601f016020809104026020016040519081016040528092919081815260200182805461095f90612651565b80156109ac5780601f10610981576101008083540402835291602001916109ac565b820191906000526020600020905b81548152906001019060200180831161098f57829003601f168201915b505050505081565b60008073ffffffffffffffffffffffffffffffffffffffff168273ffffffffffffffffffffffffffffffffffffffff1603610a24576040517f08c379a0000000000000000000000000000000000000000000000000000000008152600401610a1b90612da6565b60405180910390fd5b600360008373ffffffffffffffffffffffffffffffffffffffff1673ffffffffffffffffffffffffffffffffffffffff168152602001908152602001600020549050919050565b606060018054610a7a90612651565b80601f0160208091040260200160405190810160405280929190818152602001828054610aa690612651565b8015610af35780601f10610ac857610100808354040283529160200191610af3565b820191906000526020600020905b815481529060010190602001808311610ad657829003601f168201915b5050505050905090565b610b0f610b08610dbb565b8383611265565b5050565b610b24610b1e610dbb565b83610e7c565b610b63576040517f08c379a0000000000000000000000000000000000000000000000000000000008152600401610b5a90612818565b60405180910390fd5b610b6f848484846113d1565b50505050565b6060610b808261142d565b610bbf576040517f08c379a0000000000000000000000000000000000000000000000000000000008152600401610bb690612e38565b60405180910390fd5b600c60008381526020019081526020016000208054610bdd90612651565b80601f0160208091040260200160405190810160405280929190818152602001828054610c0990612651565b8015610c565780601f10610c2b57610100808354040283529160200191610c56565b820191906000526020600020905b815481529060010190602001808311610c3957829003601f168201915b50505050509050919050565b6000600560008473ffffffffffffffffffffffffffffffffffffffff1673ffffffffffffffffffffffffffffffffffffffff16815260200190815260200160002060008373ffffffffffffffffffffffffffffffffffffffff1673ffffffffffffffffffffffffffffffffffffffff16815260200190815260200160002060009054906101000a900460ff16905092915050565b60007f780e9d63000000000000000000000000000000000000000000000000000000007bffffffffffffffffffffffffffffffffffffffffffffffffffffffff1916827bffffffffffffffffffffffffffffffffffffffffffffffffffffffff19161480610d695750610d688261146e565b5b9050919050565b610d798161142d565b610db8576040517f08c379a0000000000000000000000000000000000000000000000000000000008152600401610daf906129d7565b60405180910390fd5b50565b600033905090565b816004600083815260200190815260200160002060006101000a81548173ffffffffffffffffffffffffffffffffffffffff021916908373ffffffffffffffffffffffffffffffffffffffff160217905550808273ffffffffffffffffffffffffffffffffffffffff16610e3683610771565b73ffffffffffffffffffffffffffffffffffffffff167f8c5be1e5ebec7d5bd14f71427d1e84f3dd0314c0f7b2291e5b200ac8c7c3b92560405160405180910390a45050565b600080610e8883610771565b90508073ffffffffffffffffffffffffffffffffffffffff168473ffffffffffffffffffffffffffffffffffffffff161480610eca5750610ec98185610c62565b5b80610f0857508373ffffffffffffffffffffffffffffffffffffffff16610ef084610471565b73ffffffffffffffffffffffffffffffffffffffff16145b91505092915050565b8273ffffffffffffffffffffffffffffffffffffffff16610f3182610771565b73ffffffffffffffffffffffffffffffffffffffff1614610f87576040517f08c379a0000000000000000000000000000000000000000000000000000000008152600401610f7e90612eca565b60405180910390fd5b600073ffffffffffffffffffffffffffffffffffffffff168273ffffffffffffffffffffffffffffffffffffffff1603610ff6576040517f08c379a0000000000000000000000000000000000000000000000000000000008152600401610fed90612f5c565b60405180910390fd5b6110038383836001611550565b8273ffffffffffffffffffffffffffffffffffffffff1661102382610771565b73ffffffffffffffffffffffffffffffffffffffff1614611079576040517f08c379a000000000000000000000000000000000000000000000000000000000815260040161107090612eca565b60405180910390fd5b6004600082815260200190815260200160002060006101000a81549073ffffffffffffffffffffffffffffffffffffffff02191690556001600360008573ffffffffffffffffffffffffffffffffffffffff1673ffffffffffffffffffffffffffffffffffffffff168152602001908152602001600020600082825403925050819055506001600360008473ffffffffffffffffffffffffffffffffffffffff1673ffffffffffffffffffffffffffffffffffffffff16815260200190815260200160002060008282540192505081905550816002600083815260200190815260200160002060006101000a81548173ffffffffffffffffffffffffffffffffffffffff021916908373ffffffffffffffffffffffffffffffffffffffff160217905550808273ffffffffffffffffffffffffffffffffffffffff168473ffffffffffffffffffffffffffffffffffffffff167fddf252ad1be2c89b69c2b068fc378daa952ba7f163c4a11628f55a4df523b3ef60405160405180910390a46112058383836001611562565b505050565b60006002600083815260200190815260200160002060009054906101000a900473ffffffffffffffffffffffffffffffffffffffff169050919050565b611261828260405180602001604052806000815250611568565b5050565b8173ffffffffffffffffffffffffffffffffffffffff168373ffffffffffffffffffffffffffffffffffffffff16036112d3576040517f08c379a00000000000000000000000000000000000000000000000000000000081526004016112ca90612fc8565b60405180910390fd5b80600560008573ffffffffffffffffffffffffffffffffffffffff1673ffffffffffffffffffffffffffffffffffffffff16815260200190815260200160002060008473ffffffffffffffffffffffffffffffffffffffff1673ffffffffffffffffffffffffffffffffffffffff16815260200190815260200160002060006101000a81548160ff0219169083151502179055508173ffffffffffffffffffffffffffffffffffffffff168373ffffffffffffffffffffffffffffffffffffffff167f17307eab39ab6107e8899845ad3d59bd9653f200f220920489ca2b5937696c31836040516113c49190612032565b60405180910390a3505050565b6113dc848484610f11565b6113e8848484846115c3565b611427576040517f08c379a000000000000000000000000000000000000000000000000000000000815260040161141e9061305a565b60405180910390fd5b50505050565b60008073ffffffffffffffffffffffffffffffffffffffff1661144f8361120a565b73ffffffffffffffffffffffffffffffffffffffff1614159050919050565b60007f80ac58cd000000000000000000000000000000000000000000000000000000007bffffffffffffffffffffffffffffffffffffffffffffffffffffffff1916827bffffffffffffffffffffffffffffffffffffffffffffffffffffffff1916148061153957507f5b5e139f000000000000000000000000000000000000000000000000000000007bffffffffffffffffffffffffffffffffffffffffffffffffffffffff1916827bffffffffffffffffffffffffffffffffffffffffffffffffffffffff1916145b8061154957506115488261174a565b5b9050919050565b61155c848484846117b4565b50505050565b50505050565b6115728383611912565b61157f60008484846115c3565b6115be576040517f08c379a00000000000000000000000000000000000000000000000000000000081526004016115b59061305a565b60405180910390fd5b505050565b60006115e48473ffffffffffffffffffffffffffffffffffffffff16611b2f565b1561173d578373ffffffffffffffffffffffffffffffffffffffff1663150b7a0261160d610dbb565b8786866040518563ffffffff1660e01b815260040161162f94939291906130cf565b6020604051808303816000875af192505050801561166b57506040513d601f19601f820116820180604052508101906116689190613130565b60015b6116ed573d806000811461169b576040519150601f19603f3d011682016040523d82523d6000602084013e6116a0565b606091505b5060008151036116e5576040517f08c379a00000000000000000000000000000000000000000000000000000000081526004016116dc9061305a565b60405180910390fd5b805181602001fd5b63150b7a0260e01b7bffffffffffffffffffffffffffffffffffffffffffffffffffffffff1916817bffffffffffffffffffffffffffffffffffffffffffffffffffffffff191614915050611742565b600190505b949350505050565b60007f01ffc9a7000000000000000000000000000000000000000000000000000000007bffffffffffffffffffffffffffffffffffffffffffffffffffffffff1916827bffffffffffffffffffffffffffffffffffffffffffffffffffffffff1916149050919050565b6117c084848484611b52565b6001811115611804576040517f08c379a00000000000000000000000000000000000000000000000000000000081526004016117fb906131cf565b60405180910390fd5b6000829050600073ffffffffffffffffffffffffffffffffffffffff168573ffffffffffffffffffffffffffffffffffffffff160361184b5761184681611c78565b61188a565b8373ffffffffffffffffffffffffffffffffffffffff168573ffffffffffffffffffffffffffffffffffffffff1614611889576118888582611cc1565b5b5b600073ffffffffffffffffffffffffffffffffffffffff168473ffffffffffffffffffffffffffffffffffffffff16036118cc576118c781611e2e565b61190b565b8473ffffffffffffffffffffffffffffffffffffffff168473ffffffffffffffffffffffffffffffffffffffff161461190a576119098482611eff565b5b5b5050505050565b600073ffffffffffffffffffffffffffffffffffffffff168273ffffffffffffffffffffffffffffffffffffffff1603611981576040517f08c379a00000000000000000000000000000000000000000000000000000000081526004016119789061323b565b60405180910390fd5b61198a8161142d565b156119ca576040517f08c379a00000000000000000000000000000000000000000000000000000000081526004016119c1906132a7565b60405180910390fd5b6119d8600083836001611550565b6119e18161142d565b15611a21576040517f08c379a0000000000000000000000000000000000000000000000000000000008152600401611a18906132a7565b60405180910390fd5b6001600360008473ffffffffffffffffffffffffffffffffffffffff1673ffffffffffffffffffffffffffffffffffffffff16815260200190815260200160002060008282540192505081905550816002600083815260200190815260200160002060006101000a81548173ffffffffffffffffffffffffffffffffffffffff021916908373ffffffffffffffffffffffffffffffffffffffff160217905550808273ffffffffffffffffffffffffffffffffffffffff16600073ffffffffffffffffffffffffffffffffffffffff167fddf252ad1be2c89b69c2b068fc378daa952ba7f163c4a11628f55a4df523b3ef60405160405180910390a4611b2b600083836001611562565b5050565b6000808273ffffffffffffffffffffffffffffffffffffffff163b119050919050565b6001811115611c7257600073ffffffffffffffffffffffffffffffffffffffff168473ffffffffffffffffffffffffffffffffffffffff1614611be65780600360008673ffffffffffffffffffffffffffffffffffffffff1673ffffffffffffffffffffffffffffffffffffffff1681526020019081526020016000206000828254611bde91906132f6565b925050819055505b600073ffffffffffffffffffffffffffffffffffffffff168373ffffffffffffffffffffffffffffffffffffffff1614611c715780600360008573ffffffffffffffffffffffffffffffffffffffff1673ffffffffffffffffffffffffffffffffffffffff1681526020019081526020016000206000828254611c69919061332a565b925050819055505b5b50505050565b6008805490506009600083815260200190815260200160002081905550600881908060018154018082558091505060019003906000526020600020016000909190919091505550565b60006001611cce846109b4565b611cd891906132f6565b9050600060076000848152602001908152602001600020549050818114611dbd576000600660008673ffffffffffffffffffffffffffffffffffffffff1673ffffffffffffffffffffffffffffffffffffffff168152602001908152602001600020600084815260200190815260200160002054905080600660008773ffffffffffffffffffffffffffffffffffffffff1673ffffffffffffffffffffffffffffffffffffffff168152602001908152602001600020600084815260200190815260200160002081905550816007600083815260200190815260200160002081905550505b6007600084815260200190815260200160002060009055600660008573ffffffffffffffffffffffffffffffffffffffff1673ffffffffffffffffffffffffffffffffffffffff16815260200190815260200160002060008381526020019081526020016000206000905550505050565b60006001600880549050611e4291906132f6565b9050600060096000848152602001908152602001600020549050600060088381548110611e7257611e7161295c565b5b906000526020600020015490508060088381548110611e9457611e9361295c565b5b906000526020600020018190555081600960008381526020019081526020016000208190555060096000858152602001908152602001600020600090556008805480611ee357611ee261335e565b5b6001900381819060005260206000200160009055905550505050565b6000611f0a836109b4565b905081600660008573ffffffffffffffffffffffffffffffffffffffff1673ffffffffffffffffffffffffffffffffffffffff168152602001908152602001600020600083815260200190815260200160002081905550806007600084815260200190815260200160002081905550505050565b6000604051905090565b600080fd5b600080fd5b60007fffffffff0000000000000000000000000000000000000000000000000000000082169050919050565b611fc781611f92565b8114611fd257600080fd5b50565b600081359050611fe481611fbe565b92915050565b60006020828403121561200057611fff611f88565b5b600061200e84828501611fd5565b91505092915050565b60008115159050919050565b61202c81612017565b82525050565b60006020820190506120476000830184612023565b92915050565b600081519050919050565b600082825260208201905092915050565b60005b8381101561208757808201518184015260208101905061206c565b60008484015250505050565b6000601f19601f8301169050919050565b60006120af8261204d565b6120b98185612058565b93506120c9818560208601612069565b6120d281612093565b840191505092915050565b600060208201905081810360008301526120f781846120a4565b905092915050565b6000819050919050565b612112816120ff565b811461211d57600080fd5b50565b60008135905061212f81612109565b92915050565b60006020828403121561214b5761214a611f88565b5b600061215984828501612120565b91505092915050565b600073ffffffffffffffffffffffffffffffffffffffff82169050919050565b600061218d82612162565b9050919050565b61219d81612182565b82525050565b60006020820190506121b86000830184612194565b92915050565b6121c781612182565b81146121d257600080fd5b50565b6000813590506121e4816121be565b92915050565b6000806040838503121561220157612200611f88565b5b600061220f858286016121d5565b925050602061222085828601612120565b9150509250929050565b612233816120ff565b82525050565b600060208201905061224e600083018461222a565b92915050565b60008060006060848603121561226d5761226c611f88565b5b600061227b868287016121d5565b935050602061228c868287016121d5565b925050604061229d86828701612120565b9150509250925092565b600080fd5b600080fd5b7f4e487b7100000000000000000000000000000000000000000000000000000000600052604160045260246000fd5b6122e982612093565b810181811067ffffffffffffffff82111715612308576123076122b1565b5b80604052505050565b600061231b611f7e565b905061232782826122e0565b919050565b600067ffffffffffffffff821115612347576123466122b1565b5b61235082612093565b9050602081019050919050565b82818337600083830152505050565b600061237f61237a8461232c565b612311565b90508281526020810184848401111561239b5761239a6122ac565b5b6123a684828561235d565b509392505050565b600082601f8301126123c3576123c26122a7565b5b81356123d384826020860161236c565b91505092915050565b6000602082840312156123f2576123f1611f88565b5b600082013567ffffffffffffffff8111156124105761240f611f8d565b5b61241c848285016123ae565b91505092915050565b60006020828403121561243b5761243a611f88565b5b6000612449848285016121d5565b91505092915050565b61245b81612017565b811461246657600080fd5b50565b60008135905061247881612452565b92915050565b6000806040838503121561249557612494611f88565b5b60006124a3858286016121d5565b92505060206124b485828601612469565b9150509250929050565b600067ffffffffffffffff8211156124d9576124d86122b1565b5b6124e282612093565b9050602081019050919050565b60006125026124fd846124be565b612311565b90508281526020810184848401111561251e5761251d6122ac565b5b61252984828561235d565b509392505050565b600082601f830112612546576125456122a7565b5b81356125568482602086016124ef565b91505092915050565b6000806000806080858703121561257957612578611f88565b5b6000612587878288016121d5565b9450506020612598878288016121d5565b93505060406125a987828801612120565b925050606085013567ffffffffffffffff8111156125ca576125c9611f8d565b5b6125d687828801612531565b91505092959194509250565b600080604083850312156125f9576125f8611f88565b5b6000612607858286016121d5565b9250506020612618858286016121d5565b9150509250929050565b7f4e487b7100000000000000000000000000000000000000000000000000000000600052602260045260246000fd5b6000600282049050600182168061266957607f821691505b60208210810361267c5761267b612622565b5b50919050565b7f4552433732313a20617070726f76616c20746f2063757272656e74206f776e6560008201527f7200000000000000000000000000000000000000000000000000000000000000602082015250565b60006126de602183612058565b91506126e982612682565b604082019050919050565b6000602082019050818103600083015261270d816126d1565b9050919050565b7f4552433732313a20617070726f76652063616c6c6572206973206e6f7420746f60008201527f6b656e206f776e6572206f7220617070726f76656420666f7220616c6c000000602082015250565b6000612770603d83612058565b915061277b82612714565b604082019050919050565b6000602082019050818103600083015261279f81612763565b9050919050565b7f4552433732313a2063616c6c6572206973206e6f7420746f6b656e206f776e6560008201527f72206f7220617070726f76656400000000000000000000000000000000000000602082015250565b6000612802602d83612058565b915061280d826127a6565b604082019050919050565b60006020820190508181036000830152612831816127f5565b9050919050565b7f455243373231456e756d657261626c653a206f776e657220696e646578206f7560008201527f74206f6620626f756e6473000000000000000000000000000000000000000000602082015250565b6000612894602b83612058565b915061289f82612838565b604082019050919050565b600060208201905081810360008301526128c381612887565b9050919050565b7f455243373231456e756d657261626c653a20676c6f62616c20696e646578206f60008201527f7574206f6620626f756e64730000000000000000000000000000000000000000602082015250565b6000612926602c83612058565b9150612931826128ca565b604082019050919050565b6000602082019050818103600083015261295581612919565b9050919050565b7f4e487b7100000000000000000000000000000000000000000000000000000000600052603260045260246000fd5b7f4552433732313a20696e76616c696420746f6b656e2049440000000000000000600082015250565b60006129c1601883612058565b91506129cc8261298b565b602082019050919050565b600060208201905081810360008301526129f0816129b4565b9050919050565b600081905092915050565b6000612a0d8261204d565b612a1781856129f7565b9350612a27818560208601612069565b80840191505092915050565b6000612a3f8284612a02565b915081905092915050565b7f54686520746f6b656e205552492073686f756c6420626520756e697175650000600082015250565b6000612a80601e83612058565b9150612a8b82612a4a565b602082019050919050565b60006020820190508181036000830152612aaf81612a73565b9050919050565b60008190508160005260206000209050919050565b60006020601f8301049050919050565b600082821b905092915050565b600060088302612b187fffffffffffffffffffffffffffffffffffffffffffffffffffffffffffffffff82612adb565b612b228683612adb565b95508019841693508086168417925050509392505050565b6000819050919050565b6000612b5f612b5a612b55846120ff565b612b3a565b6120ff565b9050919050565b6000819050919050565b612b7983612b44565b612b8d612b8582612b66565b848454612ae8565b825550505050565b600090565b612ba2612b95565b612bad818484612b70565b505050565b5b81811015612bd157612bc6600082612b9a565b600181019050612bb3565b5050565b601f821115612c1657612be781612ab6565b612bf084612acb565b81016020851015612bff578190505b612c13612c0b85612acb565b830182612bb2565b50505b505050565b600082821c905092915050565b6000612c3960001984600802612c1b565b1980831691505092915050565b6000612c528383612c28565b9150826002028217905092915050565b612c6b8261204d565b67ffffffffffffffff811115612c8457612c836122b1565b5b612c8e8254612651565b612c99828285612bd5565b600060209050601f831160018114612ccc5760008415612cba578287015190505b612cc48582612c46565b865550612d2c565b601f198416612cda86612ab6565b60005b82811015612d0257848901518255600182019150602085019450602081019050612cdd565b86831015612d1f5784890151612d1b601f891682612c28565b8355505b6001600288020188555050505b505050505050565b7f4552433732313a2061646472657373207a65726f206973206e6f74206120766160008201527f6c6964206f776e65720000000000000000000000000000000000000000000000602082015250565b6000612d90602983612058565b9150612d9b82612d34565b604082019050919050565b60006020820190508181036000830152612dbf81612d83565b9050919050565b7f4552433732314d657461646174613a2055524920717565727920666f72206e6f60008201527f6e6578697374656e7420746f6b656e0000000000000000000000000000000000602082015250565b6000612e22602f83612058565b9150612e2d82612dc6565b604082019050919050565b60006020820190508181036000830152612e5181612e15565b9050919050565b7f4552433732313a207472616e736665722066726f6d20696e636f72726563742060008201527f6f776e6572000000000000000000000000000000000000000000000000000000602082015250565b6000612eb4602583612058565b9150612ebf82612e58565b604082019050919050565b60006020820190508181036000830152612ee381612ea7565b9050919050565b7f4552433732313a207472616e7366657220746f20746865207a65726f2061646460008201527f7265737300000000000000000000000000000000000000000000000000000000602082015250565b6000612f46602483612058565b9150612f5182612eea565b604082019050919050565b60006020820190508181036000830152612f7581612f39565b9050919050565b7f4552433732313a20617070726f766520746f2063616c6c657200000000000000600082015250565b6000612fb2601983612058565b9150612fbd82612f7c565b602082019050919050565b60006020820190508181036000830152612fe181612fa5565b9050919050565b7f4552433732313a207472616e7366657220746f206e6f6e20455243373231526560008201527f63656976657220696d706c656d656e7465720000000000000000000000000000602082015250565b6000613044603283612058565b915061304f82612fe8565b604082019050919050565b6000602082019050818103600083015261307381613037565b9050919050565b600081519050919050565b600082825260208201905092915050565b60006130a18261307a565b6130ab8185613085565b93506130bb818560208601612069565b6130c481612093565b840191505092915050565b60006080820190506130e46000830187612194565b6130f16020830186612194565b6130fe604083018561222a565b81810360608301526131108184613096565b905095945050505050565b60008151905061312a81611fbe565b92915050565b60006020828403121561314657613145611f88565b5b60006131548482850161311b565b91505092915050565b7f455243373231456e756d657261626c653a20636f6e736563757469766520747260008201527f616e7366657273206e6f7420737570706f727465640000000000000000000000602082015250565b60006131b9603583612058565b91506131c48261315d565b604082019050919050565b600060208201905081810360008301526131e8816131ac565b9050919050565b7f4552433732313a206d696e7420746f20746865207a65726f2061646472657373600082015250565b6000613225602083612058565b9150613230826131ef565b602082019050919050565b6000602082019050818103600083015261325481613218565b9050919050565b7f4552433732313a20746f6b656e20616c7265616479206d696e74656400000000600082015250565b6000613291601c83612058565b915061329c8261325b565b602082019050919050565b600060208201905081810360008301526132c081613284565b9050919050565b7f4e487b7100000000000000000000000000000000000000000000000000000000600052601160045260246000fd5b6000613301826120ff565b915061330c836120ff565b9250828203905081811115613324576133236132c7565b5b92915050565b6000613335826120ff565b9150613340836120ff565b9250828201905080821115613358576133576132c7565b5b92915050565b7f4e487b7100000000000000000000000000000000000000000000000000000000600052603160045260246000fdfea26469706673582212203f133c43a2047e5f68b5fb8561de8b76d71acf8ac40d2162da6069d676f4f8db64736f6c63430008110033",
  "immutableReferences": {},
  "source": "// SPDX-License-Identifier: MIT\r\npragma solidity ^0.8.0;\r\n\r\nimport \"@openzeppelin/contracts/token/ERC721/ERC721.sol\";\r\nimport \"@openzeppelin/contracts/token/ERC721/extensions/ERC721Enumerable.sol\";\r\n\r\ncontract NFTCollection is ERC721, ERC721Enumerable {\r\n  string[] public tokenURIs;\r\n  mapping(string => bool) _tokenURIExists;\r\n  mapping(uint => string) _tokenIdToTokenURI;\r\n\r\n  constructor() \r\n    ERC721(\"YYU Collection\", \"YYU\") \r\n  {\r\n  }\r\n\r\n  function _beforeTokenTransfer(address from, address to, uint256 tokenId, uint256 batchSize) internal override(ERC721, ERC721Enumerable) {\r\n    super._beforeTokenTransfer(from, to, tokenId, batchSize);\r\n  }\r\n\r\n  function supportsInterface(bytes4 interfaceId) public view override(ERC721, ERC721Enumerable) returns (bool) {\r\n    return super.supportsInterface(interfaceId);\r\n  }\r\n\r\n  function tokenURI(uint256 tokenId) public override view returns (string memory) {\r\n    require(_exists(tokenId), 'ERC721Metadata: URI query for nonexistent token');\r\n    return _tokenIdToTokenURI[tokenId];\r\n  }\r\n\r\n  function safeMint(string memory _tokenURI) public {\r\n    require(!_tokenURIExists[_tokenURI], 'The token URI should be unique');\r\n    tokenURIs.push(_tokenURI);    \r\n    uint _id = tokenURIs.length;\r\n    _tokenIdToTokenURI[_id] = _tokenURI;\r\n    _safeMint(msg.sender, _id);\r\n    _tokenURIExists[_tokenURI] = true;\r\n  }\r\n}",
  "sourcePath": "D:\\GIT\\nft-marketplace\\src\\contracts\\NFTCollection.sol",
  "compiler": {
    "name": "solc",
    "version": "0.8.17+commit.8df45f5f.Emscripten.clang"
  },
  "schemaVersion": "3.4.10",
  "updatedAt": "2022-11-11T16:12:18.945Z",
  "networkType": "ethereum",
  "devdoc": {
    "kind": "dev",
    "methods": {
      "approve(address,uint256)": {
        "details": "See {IERC721-approve}."
      },
      "balanceOf(address)": {
        "details": "See {IERC721-balanceOf}."
      },
      "getApproved(uint256)": {
        "details": "See {IERC721-getApproved}."
      },
      "isApprovedForAll(address,address)": {
        "details": "See {IERC721-isApprovedForAll}."
      },
      "name()": {
        "details": "See {IERC721Metadata-name}."
      },
      "ownerOf(uint256)": {
        "details": "See {IERC721-ownerOf}."
      },
      "safeTransferFrom(address,address,uint256)": {
        "details": "See {IERC721-safeTransferFrom}."
      },
      "safeTransferFrom(address,address,uint256,bytes)": {
        "details": "See {IERC721-safeTransferFrom}."
      },
      "setApprovalForAll(address,bool)": {
        "details": "See {IERC721-setApprovalForAll}."
      },
      "symbol()": {
        "details": "See {IERC721Metadata-symbol}."
      },
      "tokenByIndex(uint256)": {
        "details": "See {IERC721Enumerable-tokenByIndex}."
      },
      "tokenOfOwnerByIndex(address,uint256)": {
        "details": "See {IERC721Enumerable-tokenOfOwnerByIndex}."
      },
      "tokenURI(uint256)": {
        "details": "See {IERC721Metadata-tokenURI}."
      },
      "totalSupply()": {
        "details": "See {IERC721Enumerable-totalSupply}."
      },
      "transferFrom(address,address,uint256)": {
        "details": "See {IERC721-transferFrom}."
      }
    },
    "version": 1
  },
  "userdoc": {
    "kind": "user",
    "methods": {},
    "version": 1
  }
}